:020000040800F2
:10000000000A002001010008090100080B01000896
:100010000D0100080F010008110100080000000098
:1000200000000000000000000000000013010008B4
:10003000150100080000000017010008F50C000879
:100040001B0100081B0100081B0100081B01000820
:100050001B0100081B0100081B0100081B01000810
:100060001B0100081B0100081B01000849040008CF
:100070006904000889040008A9040008C9040008EC
:10008000E9040008090500081B0100081B0100081D
:100090001B0100081B0100081B0100081B010008D0
:1000A0001B0100081B0100081B0100081B010008C0
:1000B0001B0100081B0100085D0D00081B01000862
:1000C0001B0100081B0100081B0100081B010008A0
:1000D0001B0100081B0100081B010008E5100008B7
:1000E0001B0100081B0100081B010008DFF80CD0F1
:1000F00000F040F80048004775190008000A002089
:100100000648804706480047FEE7FEE7FEE7FEE7B1
:10011000FEE7FEE7FEE7FEE7FEE7FEE7FD0C000870
:10012000ED00000840EA01039B0703D009E008C97D
:10013000121F08C0042AFAD203E011F8013B00F8AC
:10014000013B521EF9D2704730B50B4601460020E4
:100150002022012409E021FA02F59D4205D303FA89
:1001600002F5491B04FA02F52844151EA2F101020A
:10017000F1DC30BD064C074D06E0E06840F00103BD
:1001800094E8070098471034AC42F6D3FFF7B2FF6B
:10019000382100085821000870B58C1810F8015B50
:1001A00015F0070301D110F8013B2A1106D110F810
:1001B000012B03E010F8016B01F8016B5B1EF9D114
:1001C0002B0705D40023521E0DD401F8013BFAE79A
:1001D00010F8013BCB1A921C03E013F8015B01F805
:1001E000015B521EF9D5A142D8D3002070BD21B1C8
:1001F000826842F00102826003E0826822F001021C
:10020000826070470146C86C80B270470246002089
:1002100013680B400BB1012000E000207047000084
:1002200000B587B00121042000F096FC01210820D0
:1002300000F092FC0121480200F08EFC00208DF8B5
:100240001B00FF20ADF8180003208DF81A0006A946
:10025000154800F0ECFA00208DF81B000320ADF8E3
:1002600018008DF81A0006A9104800F0E0FA01A85D
:1002700000F0AFF800208DF8090004904FF46020E2
:100280000390002001900A208DF8140000208DF8C2
:10029000080001A9064800F00DF801210448FFF705
:1002A000A6FF07B000BD000000080140000C01409F
:1002B0000024014030B502460020002350680F4C56
:1002C00020400D790C6844EA052420435060906872
:1002D0000B4C2040D1E902542C434D7944EA4504AB
:1002E00020439060D06A20F470000C7C641EE4B25D
:1002F000234340EA0350D06230BD0000FFFEF0FF10
:10030000FDF7F1FFF0B504460D4600200021092D50
:1003100011DDE068A5F10A0606EB4607072606FA96
:1003200007F18843A5F10A0606EB460603FA06F133
:100330000843E0600CE0206905EB4507072606FA54
:1003400007F1884305EB450603FA06F108432061EF
:10035000072A0FDA606B561E06EB86071F2606FA81
:1003600007F18843561E06EB860605FA06F1084398
:10037000606322E00D2A0FDA206BD61F06EB86079A
:100380001F2606FA07F18843D61F06EB860605FAF4
:1003900006F10843206310E0E06AA2F10D0606EBC7
:1003A00086071F2606FA07F18843A2F10D0606EB21
:1003B000860605FA06F10843E062F0BD21B18268C5
:1003C00042F4A002826003E0826822F4A00282600C
:1003D000704700210160017141718160C16001219C
:1003E0000174704708B50121042000F0B5FB04201A
:1003F0008DF803004FF4A050ADF8000003208DF8F5
:1004000002006946014800F012FA08BD00080140E8
:1004100008B50121082000F09FFB10208DF8030093
:100420004020ADF8000003208DF802006946044822
:1004300000F0FDF94021024800F08FFA08BD0000ED
:10044000000C01407047000010B50548006800F03E
:100450000F04034844602046FFF7F4FF10BD00007E
:10046000000002407047000010B505480068C0F366
:1004700003142001024948602046FFF7F3FF10BD36
:10048000000002407047000010B505480068C0F346
:1004900003242002024948602046FFF7F3FF10BD05
:1004A000000002407047000010B505480068C0F326
:1004B00003342003024948602046FFF7F3FF10BDD4
:1004C000000002407047000010B505480068C0F306
:1004D00003442004024948602046FFF7F3FF10BDA3
:1004E000000002407047000010B505480068C0F3E6
:1004F00003542005024948602046FFF7F3FF10BD72
:10050000000002407047000010B505480068C0F3C5
:1005100003642006024948602046FFF7F3FF10BD40
:100520000000024008B50121082000F015FB102052
:100530008DF803004FF47040ADF8000003208DF8F3
:1005400002006946014800F072F908BD000C014044
:1005500010B500F019F800F03FF800F001F810BDF8
:1005600008B54FF4E06000F075FA1E208DF8000029
:1005700001208DF8030000208DF801008DF80200A5
:10058000684600F02FFA08BD08B50121042000F0EC
:10059000E3FA0121082000F0DFFA04208DF80300BF
:1005A0004003ADF8000003208DF8020069460848BA
:1005B00000F03DF904208DF803001020ADF8000094
:1005C00003208DF802006946024800F030F908BDAA
:1005D00000080140000C01400EB5002000F0CCFAEC
:1005E0000121042000F0A8FA0020ADF80600ADF8C3
:1005F00002006320ADF804002420ADF800000020C4
:100600008DF808006946064800F004FD0121044801
:1006100000F006FC01221146014800F02DFC0EBD41
:100620000008004010B5002400BF044901EB8420FD
:1006300000F07EF8641C042CF7DB10BD00F001080C
:1006400010B500F0D5F8342000F06CF840F2FF70DF
:1006500010BD00000146FF20014B13F81100704748
:1006600000F001082DE9F04104460F464FF0040860
:10067000B4F5006F02DB0020BDE8F081002000EB44
:100680004400C0F30B05C5F3090008B105F580650A
:100690000120C0EB9525214931F814004FF6FF7178
:1006A000884207D1F9B21D4A02EB440000F080F8FD
:1006B000804631E0194800EB852142141848FFF7C5
:1006C00031FD164911F81400B84201D10020D3E7DA
:1006D000134800F814701149681800F029F8804692
:1006E000002616E00E4810F8160040F47F404FF642
:1006F000FF7188420CD0094A02EB852202EB4600CA
:10070000074A12F8162042F47F4100F051F8804663
:10071000761CB6F5007FE5DB4046ADE700F001084A
:100720004C0100200149C8607047000000200240D1
:1007300030B5044604254FF4302000F065F8054636
:10074000042D17D10C48006940F002000A490861E5
:1007500008464461006940F0400008614FF43020D1
:1007600000F052F805460448006941F6FD71084062
:1007700001490861284630BD0020024004200B4991
:10078000C96801F0010109B101200EE00749C968FB
:1007900001F0040109B1022007E00449C96801F031
:1007A000100109B1032000E004207047002002403E
:1007B00070B504460D460426F00200F025F8064602
:1007C000042E11D10948006940F001000749086171
:1007D0002580F00200F018F806460448006941F64A
:1007E000FE71084001490861304670BD002002409A
:1007F0000248034948600348486070472301674541
:1008000000200240AB89EFCD00B502460423FFF77C
:10081000B5FF034603E0FFF7B1FF0346521E012B6D
:1008200001D1002AF7D102B90523184600BD2DE9F0
:10083000F041024600250026002000230024002766
:1008400091F803C00CF00F0591F803C00CF0100CE8
:10085000BCF1000F03D091F802C04CEA050591F8F5
:1008600000C0BCF1000F31D0146800202BE04FF025
:10087000010C0CFA00F3B1F800C00CEA03069E422A
:1008800020D183004FF00F0C0CFA03F7BC4305FA9C
:1008900003FC4CEA040491F803C0BCF1280F06D114
:1008A0004FF0010C0CFA00FCC2F814C00AE091F8F9
:1008B00003C0BCF1480F05D14FF0010C0CFA00FC4D
:1008C000C2F810C0401C0828D1D31460B1F800C091
:1008D000BCF1FF0F34DD546800202EE000F1080C5D
:1008E0004FF0010808FA0CF3B1F800C00CEA030657
:1008F0009E4221D183004FF00F0C0CFA03F7BC434A
:1009000005FA03FC4CEA040491F803C0BCF1280F7B
:1009100005D100F1080C08FA0CF8C2F8148091F81F
:1009200003C0BCF1480F07D100F1080C4FF00108DB
:1009300008FA0CF8C2F81080401C0828CED3546086
:10094000BDE8F0810246002093680B400BB1012006
:1009500000E000207047416170470161704710B5A9
:1009600000F020F900F022F800F07EF8FFF758FCC4
:10097000FFF7EEFD10BD000008B50121042000F0D6
:10098000EBF810208DF80300C001ADF80000032043
:100990008DF8020069460448FFF749FF4FF40061F3
:1009A0000148FFF7D8FF08BD0008014010B500F06E
:1009B0001DFF0B4800F012FF00F050FF282000F050
:1009C00059FE062000F056FE0C2000F053FE0120D8
:1009D00000F050FE4CF2503000F000FF10BD00005F
:1009E000A086010070B5002100230F22C47804B353
:1009F000154C246804F4E064C4F5E064210AC1F1F4
:100A00000403CA40447804FA03F184781440214373
:100A100009010E4C0678A155047804F01F05012445
:100A2000AC4005786D11AD0005F1E025C5F8004139
:100A300009E0047804F01F050124AC40044D067859
:100A4000761145F8264070BD0CED00E000E400E0B2
:100A500080E100E002490143024A11607047000052
:100A60000000FA050CED00E000B589B0012104207A
:100A700000F072F80121084600F06EF80121C8026A
:100A800000F06AF818208DF823004001ADF820002E
:100A900003208DF8220008A92548FFF7C8FE05A805
:100AA00000F00AFB0020ADF81A00ADF81600632034
:100AB000ADF81800D120ADF8140005A91D4800F0CC
:100AC000A9FA01211B4800F0ABF901A800F093FA44
:100AD0006020ADF804000120ADF806000020ADF85C
:100AE0000A00ADF80C0001A9124800F0CFF901A9E5
:100AF000104800F021FA08210E4800F013FA0821EE
:100B00000C4800F06BFA012200210A4800F076F947
:100B100001220421074800F071F90121054800F085
:100B20008BF90121034800F07BF909B000BD0000FA
:100B300000080140002C014029B1064AD269024355
:100B4000044BDA6104E0034AD2698243014BDA6163
:100B5000704700000010024029B1064A9269024322
:100B6000044B9A6104E0034A92698243014B9A6103
:100B7000704700000010024001460020034A506800
:100B800020F4E0600843506070470000001002400D
:100B900010B5FFF7C7FCFFF725FCFFF739FCFFF79F
:100BA000EBFE10BD30B500BF14480068144AB0FB1E
:100BB000F2F1481EB0F1807F01D301201BE0481EF6
:100BC0004FF0E022506150170F22002807DA130778
:100BD0001D0E0C4B00F00F04241F1D5503E01307DE
:100BE0001C0E094B1C5400BF00204FF0E022906106
:100BF0000720106100200028D6D130BD1C01002044
:100C000040420F0018ED00E000E400E010B500F0F5
:100C100001F810BD0CB50020019000903348006829
:100C200040F480303149086000BF3048006800F46B
:100C3000003000900198401C0190009818B901986C
:100C4000B0F5A06FF1D12948006800F4003010B170
:100C50000120009001E0002000900098012843D17D
:100C60002348006840F010002149086008460068E9
:100C700020F0030008600846006840F002000860A9
:100C80001A48406819494860084640684860084664
:100C9000406840F4806048600846406820F47C105A
:100CA00048600846406840F4E8104860084600681C
:100CB00040F08070086000BF0C48006800F00070D1
:100CC0000028F9D00948406820F00300074948602F
:100CD0000846406840F00200486000BF0348406892
:100CE00000F00C000828F9D10CBD000000100240F3
:100CF0000020024000B500F0E9F900BD10B513482E
:100D0000006840F001001149086008464068104939
:100D100008400E494860084600680E4908400B49E3
:100D200008600846006820F4802008600846406893
:100D300020F4FE0048604FF41F008860FFF766FF54
:100D40004FF000600449086010BD00000010024030
:100D50000000FFF8FFFFF6FE08ED00E010B50121EE
:100D60001F4800F078F8002839D001211C4800F015
:100D700054F84FF400411B48FFF7E4FD01280BD164
:100D800019480068012807D118480068401C174915
:100D900008600020144908604FF400411148FFF733
:100DA000D1FD10B901201049086010211048FFF74B
:100DB000C9FD01280BD10F480068012807D10E4852
:100DC0000068401C0C49086000200A490860102196
:100DD0000748FFF7B7FD10B901200649086010BDAC
:100DE00000080040000801400C0000200400002022
:100DF000000C0140100000200800002030B5002346
:100E000001248C40A3B2048C9C430484048C02FA19
:100E100001F5ADB22C43048430BDCA430282704751
:100E200021B1028842F00102028004E002884FF6FC
:100E3000FE731A400280704731B1B0F8442042F48A
:100E40000042A0F8442005E0B0F84420C2F30E02AE
:100E5000A0F84420704730B502460020002300244B
:100E6000158A05EA0103958905EA010413B10CB15D
:100E7000012000E0002030BD1AB183890B4383813B
:100E800002E083898B4383817047000070B50024A2
:100E900000220023058C4FF6FE7635400584028C37
:100EA0008388048B4FF68F752C40B51E2C400D881F
:100EB0002C43751E2A400D892A434D882A43144D20
:100EC000A8420BD0134DA84208D0134DA84205D01C
:100ED000124DA84202D0124DA84213D14FF6F77519
:100EE0002A404D892A434FF6FB752A408D882A43B4
:100EF0004FF6FF652B404FF6FF552B408D892B4356
:100F0000CD892B4383800483CD888586028470BD80
:100F1000002C0140003401400040014000440140E9
:100F2000004801400A460021018B4FF6F773194033
:100F3000114301837047000070B500240022002394
:100F4000058C4FF6EF7635400584028C8388048B40
:100F500048F6FF752C404FF6FF452C400D884FF6A4
:100F6000FF7606EA05252C434FF6DF752A400D89EA
:100F700006EA05152A434D8806EA05152A43154D4C
:100F8000A84202D0144DA8421DD14FF67F752A40C9
:100F90004D894FF6FF7606EA05152A434FF6BF75D1
:100FA0002A408D8806EA05152A434FF6FF352B4067
:100FB0004FF2FF752B408D8906EA85052B43CD89BD
:100FC00006EA85052B4383800483CD880587028448
:100FD00070BD0000002C0140003401400A46002191
:100FE000018B4FF2FF7319404FF6FF7303EA0223A0
:100FF0001943018370470021018041808180C180B5
:10100000018141818181C18170478186704701875B
:1010100070470000002202881D4B98420ED01D4BE5
:1010200098420BD0B0F1804F08D01B4B984205D0AE
:101030001A4B984202D01A4B984204D14FF68F7344
:101040001A404B881A43174B984207D0164B9842C8
:1010500004D04FF6FF431A40CB881A4302808B8896
:1010600083850B8803850A4B98420BD0094B984225
:1010700008D00E4B984205D00D4B984202D00D4B34
:10108000984201D10B7A03860123838270470000C6
:10109000002C0140003401400004004000080040E2
:1010A000000C0040001000400014004000400140CF
:1010B00000440140004801404FF6FF71818000214B
:1010C0000180C180418001727047000004480068BF
:1010D00020B103480068401E0149086070470000C5
:1010E0009800002010B520213D4800F083F8012829
:1010F00024D13B48001D00883A493B4A1278885465
:101100003948007808B9012000E000203549097805
:10111000AA2901D0012100E00021084000B110BD42
:1011200031480078401C304908700846007808288B
:1011300004D10020087001202C4908702B48007849
:10114000012848D127480078AA2844D12548C079E9
:10115000552840D1234880792249497940EA012025
:10116000642190FBF1F0224908601E4800791D4976
:10117000C97840EA0120642190FBF1F01C494860E5
:10118000184880781749497840EA0120642190FB8B
:10119000F1F01749886008460068B0F5B47F04DDB7
:1011A00008460068A0F59670086011484068B0F5E0
:1011B000B47F05DD0E484068A0F596700C49486084
:1011C0000B488068B0F5B47F05DD09488068A0F55C
:1011D00096700749886000200449087000BF9EE7A8
:1011E00000480040140000201C0000201D000020CA
:1011F0004001002002460020B1F5007F00D100BF71
:1012000013880B400BB1012000E000207047000064
:101210000FB4084B10B504A902AA039800F01CF8FB
:10122000044602A9002000F0C1F8204610BC5DF879
:1012300014FB0000AD13000802E008C8121F08C12B
:10124000002AFAD170477047002001E001C1121F47
:10125000002AFBD1704700002DE9FF4F89B09B4663
:101260000446002506E025280BD05A460B999047E6
:10127000641C6D1C20780028F5D10DB02846BDE80F
:10128000F08F0027B8460122474900E0074314F8D1
:10129000013F203B02FA03F00842F7D120782E28C4
:1012A00019D114F8010F47F004072A280ED06FF067
:1012B0002F022078A0F1300109290CD808EB880111
:1012C00002EB410100EB0108641CF2E70A98641C80
:1012D00050F8048B0A9020780028CED0642808D0DB
:1012E000692806D075281ED05A460B9990476D1C68
:1012F00058E00A994FF00A0901C90A91002802DA58
:1013000040422D2102E0390504D52B218DF8201013
:10131000012103E0F90704D02021F7E78A4608AE4F
:101320000DE00021FAE70A994FF00A0901C90A9174
:10133000F7E74946FEF708FF303106F8011D00289F
:10134000F7D1ADEB060000F12009780701D44FF08A
:101350000108C84502DDA8EB090000E00020804636
:10136000002706E008A85A46C05D0B9990476D1CFF
:101370007F1C5745F6DB04E030205A460B99904716
:101380006D1CB8F10001A8F10108F5DC05E016F8C4
:10139000010B5A460B9990476D1CB9F10001A9F158
:1013A0000109F4DC641C65E7092801000A68531C84
:1013B0000B6010707047000010B50446002C04DD6F
:1013C00040210448FFF7C9FA03E040210148FFF734
:1013D000C2FA10BD000C014010B519E0002108460A
:1013E00000F097FA2DA000F0B9FA0121002000F0DA
:1013F00090FA2FA000F0B2FA00F074F800F0F8FCB8
:1014000030B900F07DFA4FF4FA7000F0C3F800E054
:10141000E4E700BFFFF714F9FFF704F900202849BB
:10142000086027E02749264A126851F82210264A08
:10143000234B1B6852F82320881A00EBD071224AF4
:101440001F4B1B6852F8232002EB61021F491C4B03
:101450001B6841F823200A46194B1B6812F8231019
:10146000174A128890B2FFF7FDF815480068401C33
:1014700013490860124800680A28D3DB00F040FADC
:101480000021084600F045FA11A000F067FA4FF479
:10149000FA7000F07FF800F033FA10BD20204341CD
:1014A0004C4942524154494F4E2020200000000038
:1014B000626C61636B20616E64207768697465009B
:1014C0009C000020D4050020A8000020AC050020CE
:1014D00043616C6962726174696F6E20646F6E65DE
:1014E0000000000010B500202049086039E01F49C5
:1014F000087800F09DFB1E491C4A126841F8220042
:1015000008461A49096850F821101A48174A126803
:1015100050F82200814209DB15481449096850F847
:1015200021001449114A126841F8220010480F495D
:10153000096850F8210010490C4A126851F822102D
:10154000884209DC0A480949096850F821000A491B
:10155000064A126841F8220004480068401C03490A
:101560000860024800680A28C1DB10BD9C0000200A
:101570005C050020D4050020A80000204FF47A70FC
:101580000349086000BF024800680028FBD170478B
:101590009800002000B5024601E0FFF7EFFF101EA3
:1015A000A2F10102F9D100BD0020FFF705FF00F014
:1015B000A7F90021084600F0ACF90CA000F0CEF924
:1015C00012E000F0EBFA00F00DFB002000F0B4F99F
:1015D0006420FFF7DFFF0120FFF7EEFE012000F09F
:1015E000ABF96420FFF7D6FFEBE7000046494E4910
:1015F0005348000010B50020124908601FE000F0B9
:1016000001FC1149087800F0B7FA1049087800F099
:10161000D7FA0F48006868B90A480068642809DDED
:10162000002000F089F91420FFF7B4FF012000F03A
:1016300083F905E003480068401C02490860DEE7C2
:1016400000BF10BDA4000020F8000020F40000201E
:101650000001002000B5012000F032F94FF47A704B
:1016600000F0BCF8012000F03BF94FF47A7000F074
:10167000B5F800BD10B50446002000F031F904F0C3
:10168000800018B1052000F01BF902E0052000F0F1
:1016900027F904F0400018B1042000F011F902E02D
:1016A000042000F01DF904F0200018B1032000F020
:1016B00007F902E0032000F013F904F0100018B15C
:1016C000022000F0FDF802E0022000F009F9FFF727
:1016D000C1FF04F0080018B1052000F0F1F802E0A5
:1016E000052000F0FDF804F0040018B1042000F01B
:1016F000E7F802E0042000F0F3F804F0020018B16B
:10170000032000F0DDF802E0032000F0E9F804F027
:10171000010018B1022000F0D3F802E0022000F02E
:10172000DFF8FFF797FF10BD10B50446002000F06A
:10173000C7F804F0800018B1052000F0C1F802E0FD
:10174000052000F0CDF804F0400018B1042000F0AE
:10175000B7F802E0042000F0C3F804F0200018B14C
:10176000032000F0ADF802E0032000F0B9F804F027
:10177000100018B1022000F0A3F802E0022000F0EF
:10178000AFF8FFF767FF04F0080018B1052000F07C
:1017900097F802E0052000F0A3F804F0040018B167
:1017A000042000F08DF802E0042000F099F804F025
:1017B000020018B1032000F083F802E0032000F0DB
:1017C0008FF804F0010018B1022000F079F802E06F
:1017D000022000F085F8FFF73DFF10BD01B500BF06
:1017E0000098411E00910028FAD108BD38B50024A8
:1017F0002FE004EB8401184A02EB8101C868012143
:10180000FFF7AAF904EB8400134901EB800000897B
:10181000ADF8000010208DF8030003208DF80200C1
:1018200004EB84010C4A02EB810148686946FEF72B
:10183000FEFF04EB8400084901EB8000007C18B92E
:10184000204600F04DF802E0204600F039F8601C18
:10185000C4B2062CCDDB38BD2000002000B502202C
:1018600000F02EF8032000F02BF8042000F038F8E8
:10187000052000F035F8FFF7EDFE4CF25030FFF791
:10188000ADFFFFF7E7FE4CF25030FFF7A7FFFFF781
:10189000E1FE4CF25030FFF7A1FF022000F020F8EB
:1018A000032000F00DF8042000F01AF8052000F0E5
:1018B00017F8FFF7CFFE4CF25030FFF78FFF00BD57
:1018C00000EB8001054A02EB8101098900EB8002EF
:1018D000024B03EB82025268116170472000002026
:1018E00000EB8001054A02EB8101098900EB8002CF
:1018F000024B03EB820252685161704720000020C6
:1019000000B50120FFF7B6FE4CF25030FFF766FF3E
:1019100000BD70B504460D46102C00DB0024022DDE
:1019200000DB0025A807060E264346F08006304659
:10193000FFF7A0FE70BD000010B50446002C05DDC9
:101940004FF400610448FFF708F804E04FF4006129
:101950000148FFF700F810BD0008014010B504462B
:1019600003E02078FFF7E0FE641C20780028F8D11F
:1019700010BD00008AB0FEF7F2FFFFF709F914E08E
:101980000020FFF719FD00210846FFF7C2FF68A0FD
:10199000FFF7E4FF4FF4FA70FFF7FCFD0120FFF7BB
:1019A0000BFDFFF7ADFFFFF717FD00F0E7F900288B
:1019B000E6D000F0EDF900210846FFF7AAFF61A08C
:1019C000FFF7CCFF0020FFF7F7FC0020FFF7B4FF84
:1019D0003220FFF7DFFD0120FFF7EEFC0120FFF7CB
:1019E000ABFF3220FFF7D6FD0020FFF7E5FC00201B
:1019F000FFF7A2FF3220FFF7CDFD0120FFF7DCFC4F
:101A00000120FFF799FF3220FFF7C4FD0020FFF708
:101A100093FF4FF47A70FFF7BDFDFFF771FF6EE0A3
:101A200000210846FFF775FF002000F06BF904461F
:101A3000012000F067F90546022000F063F9064630
:101A4000032000F05FF90746042000F05BF98046B0
:101A5000052000F057F98146062000F053F9824630
:101A6000072000F04FF98346082000F04BF9099059
:101A7000092000F047F9CDE900BACDE90298CDE997
:101A80000476CDE906540890024632A13848099BF5
:101A9000FFF7BEFB3648FFF761FF01210220FFF789
:101AA00038FF00F093F90446224632A13048FFF790
:101AB000AFFB2F48FFF752FF01210820FFF729FF56
:101AC00000F08AF9044622462AA12948FFF7A0FB24
:101AD0002748FFF743FF01210D20FFF71AFF00F011
:101AE00081F90446224623A12148FFF791FB2048B3
:101AF000FFF734FF6420FFF74DFDFFF701FF00F013
:101B000077F900288CD1FFF757FCFFF7F9FE012089
:101B1000FFF712FF4FF49670FFF73CFD0120FFF72F
:101B20004BFC03E0FFF766FDFFF73EFDFAE7000020
:101B3000537461727443616C6962726174696F6E2F
:101B4000000000004A616E67616E204C7570612074
:101B5000446F610020202564256425642564256484
:101B60002025642564256425642564202020000048
:101B7000300100202564000010B504464FF40041F8
:101B80000548FEF7EAFE4FF480410348FEF7E3FE06
:101B9000204600F043F810BD000C014010B54FF492
:101BA00080410648FEF7D9FE4FF400410348FEF796
:101BB000D4FE002000F032F810BD0000000C0140FF
:101BC00010B504464FF400510548FEF7C6FE4FF429
:101BD00080510348FEF7BFFE204600F015F810BD07
:101BE000000C014010B54FF480510648FEF7B5FED9
:101BF0004FF400510348FEF7B0FE002000F004F857
:101C000010BD0000000C014010B5044621460248FA
:101C1000FFF7FBF910BD0000002C014010B5044691
:101C200021460248FFF7F3F910BD0000002C0140E7
:101C300010B504462CB90023012219462F48FEF79F
:101C400061FB012C05D10023012211462B48FEF730
:101C500059FB022C05D10023012202212748FEF75F
:101C600051FB032C05D10023012203212348FEF759
:101C700049FB042C05D10023012204211F48FEF753
:101C800041FB052C05D10023012205211B48FEF74D
:101C900039FB062C05D10023012206211748FEF747
:101CA00031FB072C05D10023012207211348FEF741
:101CB00029FB082C05D10023012208210F48FEF73B
:101CC00021FB092C05D10023012209210B48FEF735
:101CD00019FB01210948FEF771FB00BF02210748EB
:101CE000FEF794FA0028F9D00448FEF78BFA04496D
:101CF000097890FBF1F080B210BD00000024014093
:101D00000000002010B5044600201949086026E0B4
:101D100017490878FFF78CFF1649154A126841F8F1
:101D2000220008461249096850F821001249104A59
:101D3000126851F82210884206DA01200D490C4A37
:101D4000126841F8220005E000200A49084A12689A
:101D500041F8220006480068401C05490860044814
:101D600000680A28D4DB034810F8240010BD0000E6
:101D70009C0000205C0500208405002010B54FF475
:101D800080610248FEF7DEFD10BD00000008014042
:101D900010B500200B4908600EE00A49098888B296
:101DA000FEF758FC0849074A126841F82200054826
:101DB0000068401C03490860024800680A28ECDB00
:101DC00010BD00009C000020840500200148006830
:101DD00070470000040000200148006870470000C0
:101DE0000800002001488068704700004001002082
:101DF00010B54FF480510248FEF7A4FD10BD00005D
:101E00000008014010B51920BB4908600F20BB49EC
:101E100008600020BA4908602820BA4908600020FC
:101E2000B949086026E0B8490878FFF701FFB749CB
:101E3000B54A126841F822000846B349096850F8CB
:101E40002100B349B04A126851F82210884206DADC
:101E50000120AE49AC4A126841F8220005E0002199
:101E6000AA48A94A126840F82210A7480068401CF6
:101E7000A5490860A44800680A28D4DBA348406A42
:101E80004102A248006A01EB0021A048C06901EBB1
:101E9000C0119E48806901EB80119C48406901EBAC
:101EA00040119A48006901EB00119848C06801EBA5
:101EB000C0019648806801EB80019448406801EBBE
:101EC000400192480068084492490860084600684A
:101ED000202854D012DC06286DD006DC05286ED2EE
:101EE000DFE800F07A766E726500082857D00C287B
:101EF00059D010284BD0182861D14CE0C0282FD0E1
:101F000008DC30283FD040282FD0602832D08028ED
:101F10007ED120E0B0F5807F13D0B0F5C07F15D022
:101F2000B0F5007F03D0B0F5407F71D104E06FF0D1
:101F300007007949086087E06FF00600764908607D
:101F400082E06FF00500744908607DE06FF00400E6
:101F50007149086078E06FF003006F49086073E032
:101F60006FF002006C4908606EE06FF001006A4992
:101F7000086069E04FF0FF306749086064E00020C6
:101F80006549086060E00020634908605CE000206B
:101F90006149086058E001205F49086054E0022070
:101FA0005D49086050E003205B4908604CE0042074
:101FB0005949086048E005205749086044E027E097
:101FC0000620554908603FE00720534908603BE080
:101FD00008205149086037E04F480068002806DDB6
:101FE00000204E49086032204D4908600FE04A4801
:101FF0000068002806DA3220484908600020484975
:10200000086004E0322045490860454908601BE04B
:1020100041480068002806DD002040490860322061
:102020003F4908600FE03C480068002806DA32208B
:102030003A49086000203A49086004E032203749F4
:1020400008603749086000BF00BF33480068354961
:102050000968401A34490860274800682E49096811
:10206000484332490860254800682F4909684843B9
:102070002F490860224800680A2190FBF1F02A49A4
:102080000968284A1268114448432A4908602248CE
:102090000068244908602548006825490968084403
:1020A00018490968081A1D49086020480068204935
:1020B0000968084413490968084419490860174821
:1020C0000068642802DD6420144908601448006830
:1020D000642802DD64201249086010480068002866
:1020E00002DA00200D4908600D480068002802DA75
:1020F00000200B49086010BDDC000020EC0000202F
:10210000E4000020FC0000209C0000205C05002072
:102110008405002000010020D4000020F4000020ED
:10212000F8000020D8000020D0000020E0000020AF
:10213000F0000020E80000205821000800000020E6
:102140003001000098010008A8210008300100209B
:10215000D008000048120008B20F5A0104011114FF
:102160001001401A2007992839148A40146A021471
:102170008A801442031C0C0140131172085A041483
:10218000294569146A05141945691401101AE74DA7
:10219000092204014D3BA24AAF39F40008000203B2
:0821A000040607080900000015
:04000005080000ED02
:00000001FF
